{"abi":[{"type":"function","name":"getEmaPriceNoOlderThan","inputs":[{"name":"id","type":"bytes32","internalType":"bytes32"},{"name":"","type":"uint256","internalType":"uint256"}],"outputs":[{"name":"","type":"tuple","internalType":"struct MockPyth.Price","components":[{"name":"price","type":"int64","internalType":"int64"},{"name":"conf","type":"uint64","internalType":"uint64"},{"name":"expo","type":"int32","internalType":"int32"},{"name":"publishTime","type":"uint256","internalType":"uint256"}]}],"stateMutability":"view"},{"type":"function","name":"getEmaPriceUnsafe","inputs":[{"name":"id","type":"bytes32","internalType":"bytes32"}],"outputs":[{"name":"","type":"tuple","internalType":"struct MockPyth.Price","components":[{"name":"price","type":"int64","internalType":"int64"},{"name":"conf","type":"uint64","internalType":"uint64"},{"name":"expo","type":"int32","internalType":"int32"},{"name":"publishTime","type":"uint256","internalType":"uint256"}]}],"stateMutability":"view"},{"type":"function","name":"getPriceNoOlderThan","inputs":[{"name":"id","type":"bytes32","internalType":"bytes32"},{"name":"","type":"uint256","internalType":"uint256"}],"outputs":[{"name":"","type":"tuple","internalType":"struct MockPyth.Price","components":[{"name":"price","type":"int64","internalType":"int64"},{"name":"conf","type":"uint64","internalType":"uint64"},{"name":"expo","type":"int32","internalType":"int32"},{"name":"publishTime","type":"uint256","internalType":"uint256"}]}],"stateMutability":"view"},{"type":"function","name":"getPriceUnsafe","inputs":[{"name":"id","type":"bytes32","internalType":"bytes32"}],"outputs":[{"name":"","type":"tuple","internalType":"struct MockPyth.Price","components":[{"name":"price","type":"int64","internalType":"int64"},{"name":"conf","type":"uint64","internalType":"uint64"},{"name":"expo","type":"int32","internalType":"int32"},{"name":"publishTime","type":"uint256","internalType":"uint256"}]}],"stateMutability":"view"},{"type":"function","name":"prices","inputs":[{"name":"","type":"bytes32","internalType":"bytes32"}],"outputs":[{"name":"price","type":"int64","internalType":"int64"},{"name":"conf","type":"uint64","internalType":"uint64"},{"name":"expo","type":"int32","internalType":"int32"},{"name":"publishTime","type":"uint256","internalType":"uint256"}],"stateMutability":"view"},{"type":"function","name":"setPrice","inputs":[{"name":"feedId","type":"bytes32","internalType":"bytes32"},{"name":"price","type":"int64","internalType":"int64"},{"name":"conf","type":"uint64","internalType":"uint64"},{"name":"expo","type":"int32","internalType":"int32"}],"outputs":[],"stateMutability":"nonpayable"}],"bytecode":{"object":"0x6080604052348015600e575f5ffd5b506108868061001c5f395ff3fe608060405234801561000f575f5ffd5b5060043610610060575f3560e01c806360846bc614610064578063711a2e28146100975780639474f45b146100c757806396834ad3146100f7578063a4ae35e014610127578063da2284af14610157575b5f5ffd5b61007e60048036038101906100799190610580565b610173565b60405161008e949392919061061b565b60405180910390f35b6100b160048036038101906100ac9190610688565b6101c9565b6040516100be9190610755565b60405180910390f35b6100e160048036038101906100dc9190610580565b610266565b6040516100ee9190610755565b60405180910390f35b610111600480360381019061010c9190610580565b610302565b60405161011e9190610755565b60405180910390f35b610141600480360381019061013c9190610688565b61039e565b60405161014e9190610755565b60405180910390f35b610171600480360381019061016c91906107ec565b61043b565b005b5f602052805f5260405f205f91509050805f015f9054906101000a900460070b90805f0160089054906101000a900467ffffffffffffffff1690805f0160109054906101000a900460030b908060010154905084565b6101d1610515565b5f5f8481526020019081526020015f206040518060800160405290815f82015f9054906101000a900460070b60070b60070b81526020015f820160089054906101000a900467ffffffffffffffff1667ffffffffffffffff1667ffffffffffffffff1681526020015f820160109054906101000a900460030b60030b60030b8152602001600182015481525050905092915050565b61026e610515565b5f5f8381526020019081526020015f206040518060800160405290815f82015f9054906101000a900460070b60070b60070b81526020015f820160089054906101000a900467ffffffffffffffff1667ffffffffffffffff1667ffffffffffffffff1681526020015f820160109054906101000a900460030b60030b60030b81526020016001820154815250509050919050565b61030a610515565b5f5f8381526020019081526020015f206040518060800160405290815f82015f9054906101000a900460070b60070b60070b81526020015f820160089054906101000a900467ffffffffffffffff1667ffffffffffffffff1667ffffffffffffffff1681526020015f820160109054906101000a900460030b60030b60030b81526020016001820154815250509050919050565b6103a6610515565b5f5f8481526020019081526020015f206040518060800160405290815f82015f9054906101000a900460070b60070b60070b81526020015f820160089054906101000a900467ffffffffffffffff1667ffffffffffffffff1667ffffffffffffffff1681526020015f820160109054906101000a900460030b60030b60030b8152602001600182015481525050905092915050565b60405180608001604052808460070b81526020018367ffffffffffffffff1681526020018260030b8152602001428152505f5f8681526020019081526020015f205f820151815f015f6101000a81548167ffffffffffffffff021916908360070b67ffffffffffffffff1602179055506020820151815f0160086101000a81548167ffffffffffffffff021916908367ffffffffffffffff1602179055506040820151815f0160106101000a81548163ffffffff021916908360030b63ffffffff1602179055506060820151816001015590505050505050565b60405180608001604052805f60070b81526020015f67ffffffffffffffff1681526020015f60030b81526020015f81525090565b5f5ffd5b5f819050919050565b61055f8161054d565b8114610569575f5ffd5b50565b5f8135905061057a81610556565b92915050565b5f6020828403121561059557610594610549565b5b5f6105a28482850161056c565b91505092915050565b5f8160070b9050919050565b6105c0816105ab565b82525050565b5f67ffffffffffffffff82169050919050565b6105e2816105c6565b82525050565b5f8160030b9050919050565b6105fd816105e8565b82525050565b5f819050919050565b61061581610603565b82525050565b5f60808201905061062e5f8301876105b7565b61063b60208301866105d9565b61064860408301856105f4565b610655606083018461060c565b95945050505050565b61066781610603565b8114610671575f5ffd5b50565b5f813590506106828161065e565b92915050565b5f5f6040838503121561069e5761069d610549565b5b5f6106ab8582860161056c565b92505060206106bc85828601610674565b9150509250929050565b6106cf816105ab565b82525050565b6106de816105c6565b82525050565b6106ed816105e8565b82525050565b6106fc81610603565b82525050565b608082015f8201516107165f8501826106c6565b50602082015161072960208501826106d5565b50604082015161073c60408501826106e4565b50606082015161074f60608501826106f3565b50505050565b5f6080820190506107685f830184610702565b92915050565b610777816105ab565b8114610781575f5ffd5b50565b5f813590506107928161076e565b92915050565b6107a1816105c6565b81146107ab575f5ffd5b50565b5f813590506107bc81610798565b92915050565b6107cb816105e8565b81146107d5575f5ffd5b50565b5f813590506107e6816107c2565b92915050565b5f5f5f5f6080858703121561080457610803610549565b5b5f6108118782880161056c565b945050602061082287828801610784565b9350506040610833878288016107ae565b9250506060610844878288016107d8565b9150509295919450925056fea26469706673582212203aa6ea20db13c389b8360b6467ba36e3dbbc0bb26fb4a1e6684543065ca78ed464736f6c634300081d0033","linkReferences":{}},"methodIdentifiers":{"getEmaPriceNoOlderThan(bytes32,uint256)":"711a2e28","getEmaPriceUnsafe(bytes32)":"9474f45b","getPriceNoOlderThan(bytes32,uint256)":"a4ae35e0","getPriceUnsafe(bytes32)":"96834ad3","prices(bytes32)":"60846bc6","setPrice(bytes32,int64,uint64,int32)":"da2284af"},"id":0}