{"abi":[{"type":"constructor","inputs":[{"name":"_pyth","type":"address","internalType":"address"},{"name":"_orderbook","type":"address","internalType":"address"}],"stateMutability":"nonpayable"},{"type":"function","name":"orderbook","inputs":[],"outputs":[{"name":"","type":"address","internalType":"address"}],"stateMutability":"view"},{"type":"function","name":"pyth","inputs":[],"outputs":[{"name":"","type":"address","internalType":"address"}],"stateMutability":"view"},{"type":"function","name":"takeOrders","inputs":[{"name":"feedId","type":"bytes32","internalType":"bytes32"},{"name":"inputToken","type":"address","internalType":"address"},{"name":"inputAmount","type":"uint256","internalType":"uint256"},{"name":"outputToken","type":"address","internalType":"address"},{"name":"takeOrdersCalldata","type":"bytes","internalType":"bytes"}],"outputs":[],"stateMutability":"nonpayable"}],"bytecode":{"object":"0x60c060405234801561000f575f5ffd5b50604051610c82380380610c82833981810160405281019061003191906100fe565b8173ffffffffffffffffffffffffffffffffffffffff1660808173ffffffffffffffffffffffffffffffffffffffff16815250508073ffffffffffffffffffffffffffffffffffffffff1660a08173ffffffffffffffffffffffffffffffffffffffff1681525050505061013c565b5f5ffd5b5f73ffffffffffffffffffffffffffffffffffffffff82169050919050565b5f6100cd826100a4565b9050919050565b6100dd816100c3565b81146100e7575f5ffd5b50565b5f815190506100f8816100d4565b92915050565b5f5f60408385031215610114576101136100a0565b5b5f610121858286016100ea565b9250506020610132858286016100ea565b9150509250929050565b60805160a051610b106101725f395f81816101370152818161025601526104f901525f81816101b7015261051d0152610b105ff3fe608060405234801561000f575f5ffd5b506004361061003f575f3560e01c8063396c728914610043578063c18b1d5e1461005f578063f98d06f01461007d575b5f5ffd5b61005d60048036038101906100589190610671565b61009b565b005b6100676104f7565b6040516100749190610716565b60405180910390f35b61008561051b565b6040516100929190610716565b60405180910390f35b8473ffffffffffffffffffffffffffffffffffffffff166323b872dd3330876040518463ffffffff1660e01b81526004016100d89392919061073e565b6020604051808303815f875af11580156100f4573d5f5f3e3d5ffd5b505050506040513d601f19601f8201168201806040525081019061011891906107a8565b508473ffffffffffffffffffffffffffffffffffffffff1663095ea7b37f0000000000000000000000000000000000000000000000000000000000000000866040518363ffffffff1660e01b81526004016101749291906107d3565b6020604051808303815f875af1158015610190573d5f5f3e3d5ffd5b505050506040513d601f19601f820116820180604052508101906101b491906107a8565b507f000000000000000000000000000000000000000000000000000000000000000073ffffffffffffffffffffffffffffffffffffffff1663a4ae35e087610e106040518363ffffffff1660e01b815260040161021292919061084b565b608060405180830381865afa15801561022d573d5f5f3e3d5ffd5b505050506040513d601f19601f820116820180604052508101906102519190610a30565b505f5f7f000000000000000000000000000000000000000000000000000000000000000073ffffffffffffffffffffffffffffffffffffffff16848460405161029b929190610a97565b5f604051808303815f865af19150503d805f81146102d4576040519150601f19603f3d011682016040523d82523d5f602084013e6102d9565b606091505b5091509150816102eb57805160208201fd5b5f8573ffffffffffffffffffffffffffffffffffffffff166370a08231306040518263ffffffff1660e01b81526004016103259190610716565b602060405180830381865afa158015610340573d5f5f3e3d5ffd5b505050506040513d601f19601f820116820180604052508101906103649190610aaf565b90505f8111156103eb578573ffffffffffffffffffffffffffffffffffffffff1663a9059cbb33836040518363ffffffff1660e01b81526004016103a99291906107d3565b6020604051808303815f875af11580156103c5573d5f5f3e3d5ffd5b505050506040513d601f19601f820116820180604052508101906103e991906107a8565b505b5f8873ffffffffffffffffffffffffffffffffffffffff166370a08231306040518263ffffffff1660e01b81526004016104259190610716565b602060405180830381865afa158015610440573d5f5f3e3d5ffd5b505050506040513d601f19601f820116820180604052508101906104649190610aaf565b90505f8111156104eb578873ffffffffffffffffffffffffffffffffffffffff1663a9059cbb33836040518363ffffffff1660e01b81526004016104a99291906107d3565b6020604051808303815f875af11580156104c5573d5f5f3e3d5ffd5b505050506040513d601f19601f820116820180604052508101906104e991906107a8565b505b50505050505050505050565b7f000000000000000000000000000000000000000000000000000000000000000081565b7f000000000000000000000000000000000000000000000000000000000000000081565b5f604051905090565b5f5ffd5b5f5ffd5b5f819050919050565b61056281610550565b811461056c575f5ffd5b50565b5f8135905061057d81610559565b92915050565b5f73ffffffffffffffffffffffffffffffffffffffff82169050919050565b5f6105ac82610583565b9050919050565b6105bc816105a2565b81146105c6575f5ffd5b50565b5f813590506105d7816105b3565b92915050565b5f819050919050565b6105ef816105dd565b81146105f9575f5ffd5b50565b5f8135905061060a816105e6565b92915050565b5f5ffd5b5f5ffd5b5f5ffd5b5f5f83601f84011261063157610630610610565b5b8235905067ffffffffffffffff81111561064e5761064d610614565b5b60208301915083600182028301111561066a57610669610618565b5b9250929050565b5f5f5f5f5f5f60a0878903121561068b5761068a610548565b5b5f61069889828a0161056f565b96505060206106a989828a016105c9565b95505060406106ba89828a016105fc565b94505060606106cb89828a016105c9565b935050608087013567ffffffffffffffff8111156106ec576106eb61054c565b5b6106f889828a0161061c565b92509250509295509295509295565b610710816105a2565b82525050565b5f6020820190506107295f830184610707565b92915050565b610738816105dd565b82525050565b5f6060820190506107515f830186610707565b61075e6020830185610707565b61076b604083018461072f565b949350505050565b5f8115159050919050565b61078781610773565b8114610791575f5ffd5b50565b5f815190506107a28161077e565b92915050565b5f602082840312156107bd576107bc610548565b5b5f6107ca84828501610794565b91505092915050565b5f6040820190506107e65f830185610707565b6107f3602083018461072f565b9392505050565b61080381610550565b82525050565b5f819050919050565b5f819050919050565b5f61083561083061082b84610809565b610812565b6105dd565b9050919050565b6108458161081b565b82525050565b5f60408201905061085e5f8301856107fa565b61086b602083018461083c565b9392505050565b5f5ffd5b5f601f19601f8301169050919050565b7f4e487b71000000000000000000000000000000000000000000000000000000005f52604160045260245ffd5b6108bc82610876565b810181811067ffffffffffffffff821117156108db576108da610886565b5b80604052505050565b5f6108ed61053f565b90506108f982826108b3565b919050565b5f8160070b9050919050565b610913816108fe565b811461091d575f5ffd5b50565b5f8151905061092e8161090a565b92915050565b5f67ffffffffffffffff82169050919050565b61095081610934565b811461095a575f5ffd5b50565b5f8151905061096b81610947565b92915050565b5f8160030b9050919050565b61098681610971565b8114610990575f5ffd5b50565b5f815190506109a18161097d565b92915050565b5f815190506109b5816105e6565b92915050565b5f608082840312156109d0576109cf610872565b5b6109da60806108e4565b90505f6109e984828501610920565b5f8301525060206109fc8482850161095d565b6020830152506040610a1084828501610993565b6040830152506060610a24848285016109a7565b60608301525092915050565b5f60808284031215610a4557610a44610548565b5b5f610a52848285016109bb565b91505092915050565b5f81905092915050565b828183375f83830152505050565b5f610a7e8385610a5b565b9350610a8b838584610a65565b82840190509392505050565b5f610aa3828486610a73565b91508190509392505050565b5f60208284031215610ac457610ac3610548565b5b5f610ad1848285016109a7565b9150509291505056fea26469706673582212202ff68a5148d4a42fbd9ec004023c019a910e5d50170127e716ae954f0a3d177264736f6c634300081d0033","linkReferences":{}},"methodIdentifiers":{"orderbook()":"c18b1d5e","pyth()":"f98d06f0","takeOrders(bytes32,address,uint256,address,bytes)":"396c7289"},"id":1}