{"abi":[{"type":"constructor","inputs":[{"name":"name_","type":"string","internalType":"string"},{"name":"symbol_","type":"string","internalType":"string"},{"name":"underlying_","type":"address","internalType":"address"}],"stateMutability":"nonpayable"},{"type":"function","name":"allowance","inputs":[{"name":"owner","type":"address","internalType":"address"},{"name":"spender","type":"address","internalType":"address"}],"outputs":[{"name":"","type":"uint256","internalType":"uint256"}],"stateMutability":"view"},{"type":"function","name":"approve","inputs":[{"name":"spender","type":"address","internalType":"address"},{"name":"amount","type":"uint256","internalType":"uint256"}],"outputs":[{"name":"","type":"bool","internalType":"bool"}],"stateMutability":"nonpayable"},{"type":"function","name":"asset","inputs":[],"outputs":[{"name":"","type":"address","internalType":"address"}],"stateMutability":"view"},{"type":"function","name":"balanceOf","inputs":[{"name":"account","type":"address","internalType":"address"}],"outputs":[{"name":"","type":"uint256","internalType":"uint256"}],"stateMutability":"view"},{"type":"function","name":"burn","inputs":[{"name":"account","type":"address","internalType":"address"},{"name":"amount","type":"uint256","internalType":"uint256"}],"outputs":[],"stateMutability":"nonpayable"},{"type":"function","name":"convertToAssets","inputs":[{"name":"shares","type":"uint256","internalType":"uint256"}],"outputs":[{"name":"","type":"uint256","internalType":"uint256"}],"stateMutability":"view"},{"type":"function","name":"convertToShares","inputs":[{"name":"assets","type":"uint256","internalType":"uint256"}],"outputs":[{"name":"","type":"uint256","internalType":"uint256"}],"stateMutability":"view"},{"type":"function","name":"decimals","inputs":[],"outputs":[{"name":"","type":"uint8","internalType":"uint8"}],"stateMutability":"view"},{"type":"function","name":"decreaseAllowance","inputs":[{"name":"spender","type":"address","internalType":"address"},{"name":"subtractedValue","type":"uint256","internalType":"uint256"}],"outputs":[{"name":"","type":"bool","internalType":"bool"}],"stateMutability":"nonpayable"},{"type":"function","name":"deposit","inputs":[{"name":"assets","type":"uint256","internalType":"uint256"},{"name":"receiver","type":"address","internalType":"address"}],"outputs":[{"name":"","type":"uint256","internalType":"uint256"}],"stateMutability":"nonpayable"},{"type":"function","name":"increaseAllowance","inputs":[{"name":"spender","type":"address","internalType":"address"},{"name":"addedValue","type":"uint256","internalType":"uint256"}],"outputs":[{"name":"","type":"bool","internalType":"bool"}],"stateMutability":"nonpayable"},{"type":"function","name":"maxDeposit","inputs":[{"name":"","type":"address","internalType":"address"}],"outputs":[{"name":"","type":"uint256","internalType":"uint256"}],"stateMutability":"view"},{"type":"function","name":"maxMint","inputs":[{"name":"","type":"address","internalType":"address"}],"outputs":[{"name":"","type":"uint256","internalType":"uint256"}],"stateMutability":"view"},{"type":"function","name":"maxRedeem","inputs":[{"name":"owner","type":"address","internalType":"address"}],"outputs":[{"name":"","type":"uint256","internalType":"uint256"}],"stateMutability":"view"},{"type":"function","name":"maxWithdraw","inputs":[{"name":"owner","type":"address","internalType":"address"}],"outputs":[{"name":"","type":"uint256","internalType":"uint256"}],"stateMutability":"view"},{"type":"function","name":"mint","inputs":[{"name":"account","type":"address","internalType":"address"},{"name":"amount","type":"uint256","internalType":"uint256"}],"outputs":[],"stateMutability":"nonpayable"},{"type":"function","name":"mint","inputs":[{"name":"shares","type":"uint256","internalType":"uint256"},{"name":"receiver","type":"address","internalType":"address"}],"outputs":[{"name":"","type":"uint256","internalType":"uint256"}],"stateMutability":"nonpayable"},{"type":"function","name":"name","inputs":[],"outputs":[{"name":"","type":"string","internalType":"string"}],"stateMutability":"view"},{"type":"function","name":"previewDeposit","inputs":[{"name":"assets","type":"uint256","internalType":"uint256"}],"outputs":[{"name":"","type":"uint256","internalType":"uint256"}],"stateMutability":"view"},{"type":"function","name":"previewMint","inputs":[{"name":"shares","type":"uint256","internalType":"uint256"}],"outputs":[{"name":"","type":"uint256","internalType":"uint256"}],"stateMutability":"view"},{"type":"function","name":"previewRedeem","inputs":[{"name":"shares","type":"uint256","internalType":"uint256"}],"outputs":[{"name":"","type":"uint256","internalType":"uint256"}],"stateMutability":"view"},{"type":"function","name":"previewWithdraw","inputs":[{"name":"assets","type":"uint256","internalType":"uint256"}],"outputs":[{"name":"","type":"uint256","internalType":"uint256"}],"stateMutability":"view"},{"type":"function","name":"redeem","inputs":[{"name":"shares","type":"uint256","internalType":"uint256"},{"name":"receiver","type":"address","internalType":"address"},{"name":"owner","type":"address","internalType":"address"}],"outputs":[{"name":"","type":"uint256","internalType":"uint256"}],"stateMutability":"nonpayable"},{"type":"function","name":"symbol","inputs":[],"outputs":[{"name":"","type":"string","internalType":"string"}],"stateMutability":"view"},{"type":"function","name":"totalAssets","inputs":[],"outputs":[{"name":"","type":"uint256","internalType":"uint256"}],"stateMutability":"view"},{"type":"function","name":"totalSupply","inputs":[],"outputs":[{"name":"","type":"uint256","internalType":"uint256"}],"stateMutability":"view"},{"type":"function","name":"transfer","inputs":[{"name":"to","type":"address","internalType":"address"},{"name":"amount","type":"uint256","internalType":"uint256"}],"outputs":[{"name":"","type":"bool","internalType":"bool"}],"stateMutability":"nonpayable"},{"type":"function","name":"transferFrom","inputs":[{"name":"from","type":"address","internalType":"address"},{"name":"to","type":"address","internalType":"address"},{"name":"amount","type":"uint256","internalType":"uint256"}],"outputs":[{"name":"","type":"bool","internalType":"bool"}],"stateMutability":"nonpayable"},{"type":"function","name":"withdraw","inputs":[{"name":"assets","type":"uint256","internalType":"uint256"},{"name":"receiver","type":"address","internalType":"address"},{"name":"owner","type":"address","internalType":"address"}],"outputs":[{"name":"","type":"uint256","internalType":"uint256"}],"stateMutability":"nonpayable"},{"type":"event","name":"Approval","inputs":[{"name":"owner","type":"address","indexed":true,"internalType":"address"},{"name":"spender","type":"address","indexed":true,"internalType":"address"},{"name":"value","type":"uint256","indexed":false,"internalType":"uint256"}],"anonymous":false},{"type":"event","name":"Deposit","inputs":[{"name":"sender","type":"address","indexed":true,"internalType":"address"},{"name":"owner","type":"address","indexed":true,"internalType":"address"},{"name":"assets","type":"uint256","indexed":false,"internalType":"uint256"},{"name":"shares","type":"uint256","indexed":false,"internalType":"uint256"}],"anonymous":false},{"type":"event","name":"Transfer","inputs":[{"name":"from","type":"address","indexed":true,"internalType":"address"},{"name":"to","type":"address","indexed":true,"internalType":"address"},{"name":"value","type":"uint256","indexed":false,"internalType":"uint256"}],"anonymous":false},{"type":"event","name":"Withdraw","inputs":[{"name":"sender","type":"address","indexed":true,"internalType":"address"},{"name":"receiver","type":"address","indexed":true,"internalType":"address"},{"name":"owner","type":"address","indexed":true,"internalType":"address"},{"name":"assets","type":"uint256","indexed":false,"internalType":"uint256"},{"name":"shares","type":"uint256","indexed":false,"internalType":"uint256"}],"anonymous":false}],"bytecode":{"object":"0x60c060405234801561000f575f5ffd5b5060405161357e38038061357e83398181016040528101906100319190610395565b8083838160039081610043919061062d565b508060049081610053919061062d565b5050505f5f610067836100c560201b60201c565b9150915081610077576012610079565b805b60ff1660a08160ff16815250508273ffffffffffffffffffffffffffffffffffffffff1660808173ffffffffffffffffffffffffffffffffffffffff16815250505050505050506107ab565b5f5f5f5f8473ffffffffffffffffffffffffffffffffffffffff1663313ce56760e01b604051602401604051602081830303815290604052907bffffffffffffffffffffffffffffffffffffffffffffffffffffffff19166020820180517bffffffffffffffffffffffffffffffffffffffffffffffffffffffff83818316178352505050506040516101589190610740565b5f60405180830381855afa9150503d805f8114610190576040519150601f19603f3d011682016040523d82523d5f602084013e610195565b606091505b50915091508180156101a957506020815110155b156101e0575f818060200190518101906101c39190610780565b905060ff801681116101de57600181945094505050506101e9565b505b5f5f9350935050505b915091565b5f604051905090565b5f5ffd5b5f5ffd5b5f5ffd5b5f5ffd5b5f601f19601f8301169050919050565b7f4e487b71000000000000000000000000000000000000000000000000000000005f52604160045260245ffd5b61024d82610207565b810181811067ffffffffffffffff8211171561026c5761026b610217565b5b80604052505050565b5f61027e6101ee565b905061028a8282610244565b919050565b5f67ffffffffffffffff8211156102a9576102a8610217565b5b6102b282610207565b9050602081019050919050565b8281835e5f83830152505050565b5f6102df6102da8461028f565b610275565b9050828152602081018484840111156102fb576102fa610203565b5b6103068482856102bf565b509392505050565b5f82601f830112610322576103216101ff565b5b81516103328482602086016102cd565b91505092915050565b5f73ffffffffffffffffffffffffffffffffffffffff82169050919050565b5f6103648261033b565b9050919050565b6103748161035a565b811461037e575f5ffd5b50565b5f8151905061038f8161036b565b92915050565b5f5f5f606084860312156103ac576103ab6101f7565b5b5f84015167ffffffffffffffff8111156103c9576103c86101fb565b5b6103d58682870161030e565b935050602084015167ffffffffffffffff8111156103f6576103f56101fb565b5b6104028682870161030e565b925050604061041386828701610381565b9150509250925092565b5f81519050919050565b7f4e487b71000000000000000000000000000000000000000000000000000000005f52602260045260245ffd5b5f600282049050600182168061046b57607f821691505b60208210810361047e5761047d610427565b5b50919050565b5f819050815f5260205f209050919050565b5f6020601f8301049050919050565b5f82821b905092915050565b5f600883026104e07fffffffffffffffffffffffffffffffffffffffffffffffffffffffffffffffff826104a5565b6104ea86836104a5565b95508019841693508086168417925050509392505050565b5f819050919050565b5f819050919050565b5f61052e61052961052484610502565b61050b565b610502565b9050919050565b5f819050919050565b61054783610514565b61055b61055382610535565b8484546104b1565b825550505050565b5f5f905090565b610572610563565b61057d81848461053e565b505050565b5b818110156105a0576105955f8261056a565b600181019050610583565b5050565b601f8211156105e5576105b681610484565b6105bf84610496565b810160208510156105ce578190505b6105e26105da85610496565b830182610582565b50505b505050565b5f82821c905092915050565b5f6106055f19846008026105ea565b1980831691505092915050565b5f61061d83836105f6565b9150826002028217905092915050565b6106368261041d565b67ffffffffffffffff81111561064f5761064e610217565b5b6106598254610454565b6106648282856105a4565b5f60209050601f831160018114610695575f8415610683578287015190505b61068d8582610612565b8655506106f4565b601f1984166106a386610484565b5f5b828110156106ca578489015182556001820191506020850194506020810190506106a5565b868310156106e757848901516106e3601f8916826105f6565b8355505b6001600288020188555050505b505050505050565b5f81519050919050565b5f81905092915050565b5f61071a826106fc565b6107248185610706565b93506107348185602086016102bf565b80840191505092915050565b5f61074b8284610710565b915081905092915050565b61075f81610502565b8114610769575f5ffd5b50565b5f8151905061077a81610756565b92915050565b5f60208284031215610795576107946101f7565b5b5f6107a28482850161076c565b91505092915050565b60805160a051612d9d6107e15f395f61086401525f81816106b0015281816108950152818161146201526117110152612d9d5ff3fe608060405234801561000f575f5ffd5b50600436106101cd575f3560e01c806370a0823111610102578063b460af94116100a0578063ce96cb771161006f578063ce96cb77146105ed578063d905777e1461061d578063dd62ed3e1461064d578063ef8b30f71461067d576101cd565b8063b460af941461052d578063ba0876521461055d578063c63d75b61461058d578063c6e6f592146105bd576101cd565b80639dc29fac116100dc5780639dc29fac14610481578063a457c2d71461049d578063a9059cbb146104cd578063b3d7f6b9146104fd576101cd565b806370a082311461040357806394bf804d1461043357806395d89b4114610463576101cd565b8063313ce5671161016f578063402d267d11610149578063402d267d1461035757806340c10f19146103875780634cdad506146103a35780636e553f65146103d3576101cd565b8063313ce567146102eb57806338d52e0f146103095780633950935114610327576101cd565b8063095ea7b3116101ab578063095ea7b31461023d5780630a28a4771461026d57806318160ddd1461029d57806323b872dd146102bb576101cd565b806301e1d114146101d157806306fdde03146101ef57806307a2d13a1461020d575b5f5ffd5b6101d96106ad565b6040516101e69190611cf6565b60405180910390f35b6101f761074b565b6040516102049190611d7f565b60405180910390f35b61022760048036038101906102229190611dcd565b6107db565b6040516102349190611cf6565b60405180910390f35b61025760048036038101906102529190611e52565b6107ed565b6040516102649190611eaa565b60405180910390f35b61028760048036038101906102829190611dcd565b61080f565b6040516102949190611cf6565b60405180910390f35b6102a5610822565b6040516102b29190611cf6565b60405180910390f35b6102d560048036038101906102d09190611ec3565b61082b565b6040516102e29190611eaa565b60405180910390f35b6102f3610859565b6040516103009190611f2e565b60405180910390f35b610311610892565b60405161031e9190611f56565b60405180910390f35b610341600480360381019061033c9190611e52565b6108b9565b60405161034e9190611eaa565b60405180910390f35b610371600480360381019061036c9190611f6f565b6108ef565b60405161037e9190611cf6565b60405180910390f35b6103a1600480360381019061039c9190611e52565b610918565b005b6103bd60048036038101906103b89190611dcd565b610926565b6040516103ca9190611cf6565b60405180910390f35b6103ed60048036038101906103e89190611f9a565b610938565b6040516103fa9190611cf6565b60405180910390f35b61041d60048036038101906104189190611f6f565b6109ad565b60405161042a9190611cf6565b60405180910390f35b61044d60048036038101906104489190611f9a565b6109f2565b60405161045a9190611cf6565b60405180910390f35b61046b610a67565b6040516104789190611d7f565b60405180910390f35b61049b60048036038101906104969190611e52565b610af7565b005b6104b760048036038101906104b29190611e52565b610b05565b6040516104c49190611eaa565b60405180910390f35b6104e760048036038101906104e29190611e52565b610b7a565b6040516104f49190611eaa565b60405180910390f35b61051760048036038101906105129190611dcd565b610b9c565b6040516105249190611cf6565b60405180910390f35b61054760048036038101906105429190611fd8565b610baf565b6040516105549190611cf6565b60405180910390f35b61057760048036038101906105729190611fd8565b610c26565b6040516105849190611cf6565b60405180910390f35b6105a760048036038101906105a29190611f6f565b610c9d565b6040516105b49190611cf6565b60405180910390f35b6105d760048036038101906105d29190611dcd565b610cc6565b6040516105e49190611cf6565b60405180910390f35b61060760048036038101906106029190611f6f565b610cd8565b6040516106149190611cf6565b60405180910390f35b61063760048036038101906106329190611f6f565b610cf2565b6040516106449190611cf6565b60405180910390f35b61066760048036038101906106629190612028565b610d03565b6040516106749190611cf6565b60405180910390f35b61069760048036038101906106929190611dcd565b610d85565b6040516106a49190611cf6565b60405180910390f35b5f7f000000000000000000000000000000000000000000000000000000000000000073ffffffffffffffffffffffffffffffffffffffff166370a08231306040518263ffffffff1660e01b81526004016107079190611f56565b602060405180830381865afa158015610722573d5f5f3e3d5ffd5b505050506040513d601f19601f82011682018060405250810190610746919061207a565b905090565b60606003805461075a906120d2565b80601f0160208091040260200160405190810160405280929190818152602001828054610786906120d2565b80156107d15780601f106107a8576101008083540402835291602001916107d1565b820191905f5260205f20905b8154815290600101906020018083116107b457829003601f168201915b5050505050905090565b5f6107e6825f610d97565b9050919050565b5f5f6107f7610def565b9050610804818585610df6565b600191505092915050565b5f61081b826001610fb9565b9050919050565b5f600254905090565b5f5f610835610def565b9050610842858285611011565b61084d85858561109c565b60019150509392505050565b5f610862611308565b7f000000000000000000000000000000000000000000000000000000000000000061088d919061212f565b905090565b5f7f0000000000000000000000000000000000000000000000000000000000000000905090565b5f5f6108c3610def565b90506108e48185856108d58589610d03565b6108df9190612163565b610df6565b600191505092915050565b5f7fffffffffffffffffffffffffffffffffffffffffffffffffffffffffffffffff9050919050565b610922828261130f565b5050565b5f610931825f610d97565b9050919050565b5f610942826108ef565b831115610984576040517f08c379a000000000000000000000000000000000000000000000000000000000815260040161097b906121e0565b60405180910390fd5b5f61098e84610d85565b90506109a361099b610def565b84868461145d565b8091505092915050565b5f5f5f8373ffffffffffffffffffffffffffffffffffffffff1673ffffffffffffffffffffffffffffffffffffffff1681526020019081526020015f20549050919050565b5f6109fc82610c9d565b831115610a3e576040517f08c379a0000000000000000000000000000000000000000000000000000000008152600401610a3590612248565b60405180910390fd5b5f610a4884610b9c565b9050610a5d610a55610def565b84838761145d565b8091505092915050565b606060048054610a76906120d2565b80601f0160208091040260200160405190810160405280929190818152602001828054610aa2906120d2565b8015610aed5780601f10610ac457610100808354040283529160200191610aed565b820191905f5260205f20905b815481529060010190602001808311610ad057829003601f168201915b5050505050905090565b610b018282611500565b5050565b5f5f610b0f610def565b90505f610b1c8286610d03565b905083811015610b61576040517f08c379a0000000000000000000000000000000000000000000000000000000008152600401610b58906122d6565b60405180910390fd5b610b6e8286868403610df6565b60019250505092915050565b5f5f610b84610def565b9050610b9181858561109c565b600191505092915050565b5f610ba8826001610d97565b9050919050565b5f610bb982610cd8565b841115610bfb576040517f08c379a0000000000000000000000000000000000000000000000000000000008152600401610bf29061233e565b60405180910390fd5b5f610c058561080f565b9050610c1b610c12610def565b858588856116c3565b809150509392505050565b5f610c3082610cf2565b841115610c72576040517f08c379a0000000000000000000000000000000000000000000000000000000008152600401610c69906123a6565b60405180910390fd5b5f610c7c85610926565b9050610c92610c89610def565b858584896116c3565b809150509392505050565b5f7fffffffffffffffffffffffffffffffffffffffffffffffffffffffffffffffff9050919050565b5f610cd1825f610fb9565b9050919050565b5f610ceb610ce5836109ad565b5f610d97565b9050919050565b5f610cfc826109ad565b9050919050565b5f60015f8473ffffffffffffffffffffffffffffffffffffffff1673ffffffffffffffffffffffffffffffffffffffff1681526020019081526020015f205f8373ffffffffffffffffffffffffffffffffffffffff1673ffffffffffffffffffffffffffffffffffffffff1681526020019081526020015f2054905092915050565b5f610d90825f610fb9565b9050919050565b5f610de76001610da56106ad565b610daf9190612163565b610db7611308565b600a610dc391906124f3565b610dcb610822565b610dd59190612163565b84866117bc909392919063ffffffff16565b905092915050565b5f33905090565b5f73ffffffffffffffffffffffffffffffffffffffff168373ffffffffffffffffffffffffffffffffffffffff1603610e64576040517f08c379a0000000000000000000000000000000000000000000000000000000008152600401610e5b906125ad565b60405180910390fd5b5f73ffffffffffffffffffffffffffffffffffffffff168273ffffffffffffffffffffffffffffffffffffffff1603610ed2576040517f08c379a0000000000000000000000000000000000000000000000000000000008152600401610ec99061263b565b60405180910390fd5b8060015f8573ffffffffffffffffffffffffffffffffffffffff1673ffffffffffffffffffffffffffffffffffffffff1681526020019081526020015f205f8473ffffffffffffffffffffffffffffffffffffffff1673ffffffffffffffffffffffffffffffffffffffff1681526020019081526020015f20819055508173ffffffffffffffffffffffffffffffffffffffff168373ffffffffffffffffffffffffffffffffffffffff167f8c5be1e5ebec7d5bd14f71427d1e84f3dd0314c0f7b2291e5b200ac8c7c3b92583604051610fac9190611cf6565b60405180910390a3505050565b5f611009610fc5611308565b600a610fd191906124f3565b610fd9610822565b610fe39190612163565b6001610fed6106ad565b610ff79190612163565b84866117bc909392919063ffffffff16565b905092915050565b5f61101c8484610d03565b90507fffffffffffffffffffffffffffffffffffffffffffffffffffffffffffffffff81146110965781811015611088576040517f08c379a000000000000000000000000000000000000000000000000000000000815260040161107f906126a3565b60405180910390fd5b6110958484848403610df6565b5b50505050565b5f73ffffffffffffffffffffffffffffffffffffffff168373ffffffffffffffffffffffffffffffffffffffff160361110a576040517f08c379a000000000000000000000000000000000000000000000000000000000815260040161110190612731565b60405180910390fd5b5f73ffffffffffffffffffffffffffffffffffffffff168273ffffffffffffffffffffffffffffffffffffffff1603611178576040517f08c379a000000000000000000000000000000000000000000000000000000000815260040161116f906127bf565b60405180910390fd5b611183838383611830565b5f5f5f8573ffffffffffffffffffffffffffffffffffffffff1673ffffffffffffffffffffffffffffffffffffffff1681526020019081526020015f2054905081811015611206576040517f08c379a00000000000000000000000000000000000000000000000000000000081526004016111fd9061284d565b60405180910390fd5b8181035f5f8673ffffffffffffffffffffffffffffffffffffffff1673ffffffffffffffffffffffffffffffffffffffff1681526020019081526020015f2081905550815f5f8573ffffffffffffffffffffffffffffffffffffffff1673ffffffffffffffffffffffffffffffffffffffff1681526020019081526020015f205f82825401925050819055508273ffffffffffffffffffffffffffffffffffffffff168473ffffffffffffffffffffffffffffffffffffffff167fddf252ad1be2c89b69c2b068fc378daa952ba7f163c4a11628f55a4df523b3ef846040516112ef9190611cf6565b60405180910390a3611302848484611835565b50505050565b5f5f905090565b5f73ffffffffffffffffffffffffffffffffffffffff168273ffffffffffffffffffffffffffffffffffffffff160361137d576040517f08c379a0000000000000000000000000000000000000000000000000000000008152600401611374906128b5565b60405180910390fd5b6113885f8383611830565b8060025f8282546113999190612163565b92505081905550805f5f8473ffffffffffffffffffffffffffffffffffffffff1673ffffffffffffffffffffffffffffffffffffffff1681526020019081526020015f205f82825401925050819055508173ffffffffffffffffffffffffffffffffffffffff165f73ffffffffffffffffffffffffffffffffffffffff167fddf252ad1be2c89b69c2b068fc378daa952ba7f163c4a11628f55a4df523b3ef836040516114469190611cf6565b60405180910390a36114595f8383611835565b5050565b6114897f000000000000000000000000000000000000000000000000000000000000000085308561183a565b611493838261130f565b8273ffffffffffffffffffffffffffffffffffffffff168473ffffffffffffffffffffffffffffffffffffffff167fdcbc1c05240f31ff3ad067ef1ee35ce4997762752e3a095284754544f4c709d784846040516114f29291906128d3565b60405180910390a350505050565b5f73ffffffffffffffffffffffffffffffffffffffff168273ffffffffffffffffffffffffffffffffffffffff160361156e576040517f08c379a00000000000000000000000000000000000000000000000000000000081526004016115659061296a565b60405180910390fd5b611579825f83611830565b5f5f5f8473ffffffffffffffffffffffffffffffffffffffff1673ffffffffffffffffffffffffffffffffffffffff1681526020019081526020015f20549050818110156115fc576040517f08c379a00000000000000000000000000000000000000000000000000000000081526004016115f3906129f8565b60405180910390fd5b8181035f5f8573ffffffffffffffffffffffffffffffffffffffff1673ffffffffffffffffffffffffffffffffffffffff1681526020019081526020015f20819055508160025f82825403925050819055505f73ffffffffffffffffffffffffffffffffffffffff168373ffffffffffffffffffffffffffffffffffffffff167fddf252ad1be2c89b69c2b068fc378daa952ba7f163c4a11628f55a4df523b3ef846040516116ab9190611cf6565b60405180910390a36116be835f84611835565b505050565b8273ffffffffffffffffffffffffffffffffffffffff168573ffffffffffffffffffffffffffffffffffffffff161461170257611701838683611011565b5b61170c8382611500565b6117377f000000000000000000000000000000000000000000000000000000000000000085846118c3565b8273ffffffffffffffffffffffffffffffffffffffff168473ffffffffffffffffffffffffffffffffffffffff168673ffffffffffffffffffffffffffffffffffffffff167ffbde797d201c681b91056529119e0b02407c7bb96a4a2c75c01fc9667232c8db85856040516117ad9291906128d3565b60405180910390a45050505050565b5f5f6117c9868686611949565b9050600160028111156117df576117de612a16565b5b8360028111156117f2576117f1612a16565b5b14801561180f57505f848061180a57611809612a43565b5b868809115b15611824576001816118219190612163565b90505b80915050949350505050565b505050565b505050565b6118bd846323b872dd60e01b85858560405160240161185b93929190612a70565b604051602081830303815290604052907bffffffffffffffffffffffffffffffffffffffffffffffffffffffff19166020820180517bffffffffffffffffffffffffffffffffffffffffffffffffffffffff8381831617835250505050611a53565b50505050565b6119448363a9059cbb60e01b84846040516024016118e2929190612aa5565b604051602081830303815290604052907bffffffffffffffffffffffffffffffffffffffffffffffffffffffff19166020820180517bffffffffffffffffffffffffffffffffffffffffffffffffffffffff8381831617835250505050611a53565b505050565b5f5f5f5f198587098587029250828110838203039150505f81036119815783828161197757611976612a43565b5b0492505050611a4c565b8084116119c3576040517f08c379a00000000000000000000000000000000000000000000000000000000081526004016119ba90612b16565b60405180910390fd5b5f8486880990508281118203915080830392505f60018619018616905080860495508084049350600181825f0304019050808302841793505f600287600302189050808702600203810290508087026002038102905080870260020381029050808702600203810290508087026002038102905080870260020381029050808502955050505050505b9392505050565b5f611ab4826040518060400160405280602081526020017f5361666545524332303a206c6f772d6c6576656c2063616c6c206661696c65648152508573ffffffffffffffffffffffffffffffffffffffff16611b199092919063ffffffff16565b90505f81511480611ad5575080806020019051810190611ad49190612b5e565b5b611b14576040517f08c379a0000000000000000000000000000000000000000000000000000000008152600401611b0b90612bf9565b60405180910390fd5b505050565b6060611b2784845f85611b30565b90509392505050565b606082471015611b75576040517f08c379a0000000000000000000000000000000000000000000000000000000008152600401611b6c90612c87565b60405180910390fd5b5f5f8673ffffffffffffffffffffffffffffffffffffffff168587604051611b9d9190612ce9565b5f6040518083038185875af1925050503d805f8114611bd7576040519150601f19603f3d011682016040523d82523d5f602084013e611bdc565b606091505b5091509150611bed87838387611bf9565b92505050949350505050565b60608315611c5a575f835103611c5257611c1285611c6d565b611c51576040517f08c379a0000000000000000000000000000000000000000000000000000000008152600401611c4890612d49565b60405180910390fd5b5b829050611c65565b611c648383611c8f565b5b949350505050565b5f5f8273ffffffffffffffffffffffffffffffffffffffff163b119050919050565b5f82511115611ca15781518083602001fd5b806040517f08c379a0000000000000000000000000000000000000000000000000000000008152600401611cd59190611d7f565b60405180910390fd5b5f819050919050565b611cf081611cde565b82525050565b5f602082019050611d095f830184611ce7565b92915050565b5f81519050919050565b5f82825260208201905092915050565b8281835e5f83830152505050565b5f601f19601f8301169050919050565b5f611d5182611d0f565b611d5b8185611d19565b9350611d6b818560208601611d29565b611d7481611d37565b840191505092915050565b5f6020820190508181035f830152611d978184611d47565b905092915050565b5f5ffd5b611dac81611cde565b8114611db6575f5ffd5b50565b5f81359050611dc781611da3565b92915050565b5f60208284031215611de257611de1611d9f565b5b5f611def84828501611db9565b91505092915050565b5f73ffffffffffffffffffffffffffffffffffffffff82169050919050565b5f611e2182611df8565b9050919050565b611e3181611e17565b8114611e3b575f5ffd5b50565b5f81359050611e4c81611e28565b92915050565b5f5f60408385031215611e6857611e67611d9f565b5b5f611e7585828601611e3e565b9250506020611e8685828601611db9565b9150509250929050565b5f8115159050919050565b611ea481611e90565b82525050565b5f602082019050611ebd5f830184611e9b565b92915050565b5f5f5f60608486031215611eda57611ed9611d9f565b5b5f611ee786828701611e3e565b9350506020611ef886828701611e3e565b9250506040611f0986828701611db9565b9150509250925092565b5f60ff82169050919050565b611f2881611f13565b82525050565b5f602082019050611f415f830184611f1f565b92915050565b611f5081611e17565b82525050565b5f602082019050611f695f830184611f47565b92915050565b5f60208284031215611f8457611f83611d9f565b5b5f611f9184828501611e3e565b91505092915050565b5f5f60408385031215611fb057611faf611d9f565b5b5f611fbd85828601611db9565b9250506020611fce85828601611e3e565b9150509250929050565b5f5f5f60608486031215611fef57611fee611d9f565b5b5f611ffc86828701611db9565b935050602061200d86828701611e3e565b925050604061201e86828701611e3e565b9150509250925092565b5f5f6040838503121561203e5761203d611d9f565b5b5f61204b85828601611e3e565b925050602061205c85828601611e3e565b9150509250929050565b5f8151905061207481611da3565b92915050565b5f6020828403121561208f5761208e611d9f565b5b5f61209c84828501612066565b91505092915050565b7f4e487b71000000000000000000000000000000000000000000000000000000005f52602260045260245ffd5b5f60028204905060018216806120e957607f821691505b6020821081036120fc576120fb6120a5565b5b50919050565b7f4e487b71000000000000000000000000000000000000000000000000000000005f52601160045260245ffd5b5f61213982611f13565b915061214483611f13565b9250828201905060ff81111561215d5761215c612102565b5b92915050565b5f61216d82611cde565b915061217883611cde565b92508282019050808211156121905761218f612102565b5b92915050565b7f455243343632363a206465706f736974206d6f7265207468616e206d617800005f82015250565b5f6121ca601e83611d19565b91506121d582612196565b602082019050919050565b5f6020820190508181035f8301526121f7816121be565b9050919050565b7f455243343632363a206d696e74206d6f7265207468616e206d617800000000005f82015250565b5f612232601b83611d19565b915061223d826121fe565b602082019050919050565b5f6020820190508181035f83015261225f81612226565b9050919050565b7f45524332303a2064656372656173656420616c6c6f77616e63652062656c6f775f8201527f207a65726f000000000000000000000000000000000000000000000000000000602082015250565b5f6122c0602583611d19565b91506122cb82612266565b604082019050919050565b5f6020820190508181035f8301526122ed816122b4565b9050919050565b7f455243343632363a207769746864726177206d6f7265207468616e206d6178005f82015250565b5f612328601f83611d19565b9150612333826122f4565b602082019050919050565b5f6020820190508181035f8301526123558161231c565b9050919050565b7f455243343632363a2072656465656d206d6f7265207468616e206d61780000005f82015250565b5f612390601d83611d19565b915061239b8261235c565b602082019050919050565b5f6020820190508181035f8301526123bd81612384565b9050919050565b5f8160011c9050919050565b5f5f8291508390505b6001851115612419578086048111156123f5576123f4612102565b5b60018516156124045780820291505b8081029050612412856123c4565b94506123d9565b94509492505050565b5f8261243157600190506124ec565b8161243e575f90506124ec565b8160018114612454576002811461245e5761248d565b60019150506124ec565b60ff8411156124705761246f612102565b5b8360020a91508482111561248757612486612102565b5b506124ec565b5060208310610133831016604e8410600b84101617156124c25782820a9050838111156124bd576124bc612102565b5b6124ec565b6124cf84848460016123d0565b925090508184048111156124e6576124e5612102565b5b81810290505b9392505050565b5f6124fd82611cde565b915061250883611f13565b92506125357fffffffffffffffffffffffffffffffffffffffffffffffffffffffffffffffff8484612422565b905092915050565b7f45524332303a20617070726f76652066726f6d20746865207a65726f206164645f8201527f7265737300000000000000000000000000000000000000000000000000000000602082015250565b5f612597602483611d19565b91506125a28261253d565b604082019050919050565b5f6020820190508181035f8301526125c48161258b565b9050919050565b7f45524332303a20617070726f766520746f20746865207a65726f2061646472655f8201527f7373000000000000000000000000000000000000000000000000000000000000602082015250565b5f612625602283611d19565b9150612630826125cb565b604082019050919050565b5f6020820190508181035f83015261265281612619565b9050919050565b7f45524332303a20696e73756666696369656e7420616c6c6f77616e63650000005f82015250565b5f61268d601d83611d19565b915061269882612659565b602082019050919050565b5f6020820190508181035f8301526126ba81612681565b9050919050565b7f45524332303a207472616e736665722066726f6d20746865207a65726f2061645f8201527f6472657373000000000000000000000000000000000000000000000000000000602082015250565b5f61271b602583611d19565b9150612726826126c1565b604082019050919050565b5f6020820190508181035f8301526127488161270f565b9050919050565b7f45524332303a207472616e7366657220746f20746865207a65726f20616464725f8201527f6573730000000000000000000000000000000000000000000000000000000000602082015250565b5f6127a9602383611d19565b91506127b48261274f565b604082019050919050565b5f6020820190508181035f8301526127d68161279d565b9050919050565b7f45524332303a207472616e7366657220616d6f756e74206578636565647320625f8201527f616c616e63650000000000000000000000000000000000000000000000000000602082015250565b5f612837602683611d19565b9150612842826127dd565b604082019050919050565b5f6020820190508181035f8301526128648161282b565b9050919050565b7f45524332303a206d696e7420746f20746865207a65726f2061646472657373005f82015250565b5f61289f601f83611d19565b91506128aa8261286b565b602082019050919050565b5f6020820190508181035f8301526128cc81612893565b9050919050565b5f6040820190506128e65f830185611ce7565b6128f36020830184611ce7565b9392505050565b7f45524332303a206275726e2066726f6d20746865207a65726f206164647265735f8201527f7300000000000000000000000000000000000000000000000000000000000000602082015250565b5f612954602183611d19565b915061295f826128fa565b604082019050919050565b5f6020820190508181035f83015261298181612948565b9050919050565b7f45524332303a206275726e20616d6f756e7420657863656564732062616c616e5f8201527f6365000000000000000000000000000000000000000000000000000000000000602082015250565b5f6129e2602283611d19565b91506129ed82612988565b604082019050919050565b5f6020820190508181035f830152612a0f816129d6565b9050919050565b7f4e487b71000000000000000000000000000000000000000000000000000000005f52602160045260245ffd5b7f4e487b71000000000000000000000000000000000000000000000000000000005f52601260045260245ffd5b5f606082019050612a835f830186611f47565b612a906020830185611f47565b612a9d6040830184611ce7565b949350505050565b5f604082019050612ab85f830185611f47565b612ac56020830184611ce7565b9392505050565b7f4d6174683a206d756c446976206f766572666c6f7700000000000000000000005f82015250565b5f612b00601583611d19565b9150612b0b82612acc565b602082019050919050565b5f6020820190508181035f830152612b2d81612af4565b9050919050565b612b3d81611e90565b8114612b47575f5ffd5b50565b5f81519050612b5881612b34565b92915050565b5f60208284031215612b7357612b72611d9f565b5b5f612b8084828501612b4a565b91505092915050565b7f5361666545524332303a204552433230206f7065726174696f6e20646964206e5f8201527f6f74207375636365656400000000000000000000000000000000000000000000602082015250565b5f612be3602a83611d19565b9150612bee82612b89565b604082019050919050565b5f6020820190508181035f830152612c1081612bd7565b9050919050565b7f416464726573733a20696e73756666696369656e742062616c616e636520666f5f8201527f722063616c6c0000000000000000000000000000000000000000000000000000602082015250565b5f612c71602683611d19565b9150612c7c82612c17565b604082019050919050565b5f6020820190508181035f830152612c9e81612c65565b9050919050565b5f81519050919050565b5f81905092915050565b5f612cc382612ca5565b612ccd8185612caf565b9350612cdd818560208601611d29565b80840191505092915050565b5f612cf48284612cb9565b915081905092915050565b7f416464726573733a2063616c6c20746f206e6f6e2d636f6e74726163740000005f82015250565b5f612d33601d83611d19565b9150612d3e82612cff565b602082019050919050565b5f6020820190508181035f830152612d6081612d27565b905091905056fea26469706673582212206e1253fc1918c9a2c6679b306e2f5a9260051b24c271c5c4d3eb729d2ce1723864736f6c634300081f0033","linkReferences":{}},"methodIdentifiers":{"allowance(address,address)":"dd62ed3e","approve(address,uint256)":"095ea7b3","asset()":"38d52e0f","balanceOf(address)":"70a08231","burn(address,uint256)":"9dc29fac","convertToAssets(uint256)":"07a2d13a","convertToShares(uint256)":"c6e6f592","decimals()":"313ce567","decreaseAllowance(address,uint256)":"a457c2d7","deposit(uint256,address)":"6e553f65","increaseAllowance(address,uint256)":"39509351","maxDeposit(address)":"402d267d","maxMint(address)":"c63d75b6","maxRedeem(address)":"d905777e","maxWithdraw(address)":"ce96cb77","mint(address,uint256)":"40c10f19","mint(uint256,address)":"94bf804d","name()":"06fdde03","previewDeposit(uint256)":"ef8b30f7","previewMint(uint256)":"b3d7f6b9","previewRedeem(uint256)":"4cdad506","previewWithdraw(uint256)":"0a28a477","redeem(uint256,address,address)":"ba087652","symbol()":"95d89b41","totalAssets()":"01e1d114","totalSupply()":"18160ddd","transfer(address,uint256)":"a9059cbb","transferFrom(address,address,uint256)":"23b872dd","withdraw(uint256,address,address)":"b460af94"},"id":1}